:10000000CCC00000E7C00000E5C00000E3C0000075
:10001000E1C00000DFC00000DDC00000DBC0000068
:10002000D9C00000D7C000000C946823D3C00000E2
:10003000D1C00000CFC00000CDC00000CBC0000088
:10004000C9C00000C7C00000C5C00000C3C0000098
:100050000C94E60EBFC00000BDC00000BBC0000095
:10006000B9C00000B7C00000B5C00000B3C00000B8
:10007000B1C00000AFC00000ADC00000ABC00000C8
:10008000A9C00000A7C00000A5C000000C94850E08
:10009000A1C000009FC000009DC000009BC00000E8
:1000A00099C0000097C0000095C00000461540159B
:1000B00034153A154C155115511551155115511549
:1000C000281522152E15921D941D961D981D9A1DFA
:1000D0009C1D9E1DA01DA21DB41DB61DB81DBA1DE0
:1000E000BC1DBE1DC01D54247C2469257C246925AB
:1000F000BB24DE2469253625462526033000320040
:100100004400200043007500730074006F006D0010
:10011000000018033000320044000000040309040A
:1001200009022900010100C0FA09040000020301CC
:100130000100092111010001223F00070581030888
:100140000001070502030800011201100100000070
:1001500008EB03422001000102000105010906A18C
:1001600001050719E029E7150025017501950881AA
:100170000295017508810105081901290595057584
:100180000191029501750391011500256505071977
:10019000002965950675088100C011241FBECFEFA8
:1001A000DAE0DEBFCDBF11E0A0E0B1E0ECEFFBE4B0
:1001B00002C005900D92A031B107D9F727E0A0E168
:1001C000B1E001C01D92A637B207E1F70E948F127D
:1001D0000C94FC2515CF882331F081E08093100129
:1001E0000C944011089510921001089581E09091AF
:1001F0001001911101C080E00895CF93809110010A
:10020000882389F06A9872988CB1F8940E94070E3E
:10021000C0E060E08C2F0E94D014CF5FC530C9F7DA
:10022000E0E0F8E3099580E0CF910895863E41F43F
:10023000662309F10E942B100E94BF1781E00895E8
:10024000873E71F46623C9F00E94251090E0019664
:10025000837090780E9428100E94BF1781E0089553
:100260008C5D843060F4662361F00E9428100E9447
:10027000BF1781E0089581E0089581E0089580E04E
:10028000089581E00895CF93DF93C82FD62F8D3E38
:1002900079F4662309F456C00E94E513882321F0FF
:1002A00080E00E94A6174EC081E00E94A6174AC0B7
:1002B000853E31F4662309F495C00E94ED0F92C08B
:1002C000833FB1F4662309F4D0C08091630782FFB5
:1002D00004C08B7F8093630703C0846080936307AF
:1002E0008091630760E084700E94971781E0CAC024
:1002F000813FE9F4662309F4BAC08091630780FF67
:1003000004C08E7F8093630703C08160809363077E
:100310008091630760E081700E9497178091630766
:100320008D7F809363070E94A41381E0ABC0803F60
:1003300049F404D1811179C0D1119BC00E94D0151C
:1003400081E0A0C0C23FB1F4DD2309F494C08091E4
:10035000340180FF04C08E7F8093340103C081602C
:10036000809334018091340160E081700E9497177E
:1003700081E088C0CA3EB1F5DD2309F47EC08091DA
:100380003504811112C081E08093350420E041E002
:1003900064E170E085E00E94DF1581E00E94711544
:1003A00082E00E94C01381E06DC01092350410926B
:1003B00030041092310410923204109233041092DF
:1003C000340480E00E94711521E040E064E170E0B7
:1003D00081E00E94DF1582E00E94CF130E94A413E7
:1003E00081E050C08EE28C0F8530F8F4DD2309F4F3
:1003F00046C0909135049923A1F090E0FC01E05DA6
:10040000FB4F2081222331F0FC01E05DFB4F108285
:1004100081E038C0FC01E05DFB4F21E0208381E0FA
:1004200031C00E94381781E02DC085E18C0F8230E9
:1004300040F580913504882371F0CB3E31F46D2F67
:1004400081E00E947E1681E01DC06D2F80E00E9439
:100450007E1681E017C0CB3E21F410922F0481E07C
:1004600011C081E080932F040DC081E00BC081E0BA
:1004700009C081E007C081E005C081E003C081E0E0
:1004800001C080E0DF91CF910895292F33272330D9
:100490003105C9F044F42130310509F439C0223066
:1004A000310561F006C02132310541F122323105BA
:1004B00051F180E090E020E030E033C089E290E04C
:1004C00020E231E02EC099278130910559F0823029
:1004D000910571F0892B09F5ECE1F1E0849190E050
:1004E0009F011FC0E2E1F1E0849190E09F0119C0FB
:1004F000EAEFF0E0849190E09F0113C089E090E082
:1005000022E331E00EC08FE390E02BE531E009C03B
:1005100082E190E029E431E004C080E090E020E056
:1005200030E0FA0131832083089510922A0110925D
:100530002B0110922C0110922D01089581E09091D1
:100540002F01911101C080E0089580932F01811146
:1005500010922A01089580932E0108958A3010F098
:1005600061110FC0ACE2B1E09C9190932D01EBE2E0
:10057000F1E090819C93808384E00E94D01581E01B
:10058000089580E00895FF920F931F93CF93DF9318
:10059000C82F062F142FD22F85E00E94AB13811194
:1005A000B8C28C2F0E947E13F82EC03FD9F020E2F3
:1005B000821731F080E1F81619F08F2D8B7F91F4BE
:1005C00080912E01833071F0843161F0843039F4F0
:1005D00020E4F21639F0C83C09F09BC203C08F300A
:1005E00009F097C2412F602F80E00E94581380933A
:1005F000290192EE980F9A3028F4873229F023EEE1
:10060000280F03C02FEF01C020E02093000190913C
:100610002E019431F9F4DD2309F496C0C03F29F48A
:100620008DD380E00E94D01513C0893229F4E4D321
:1006300086E10E94D0150CC010922801009327017A
:1006400010932601612F802F53D385E10E94D0158E
:100650006CDF5FC2953109F049C0DD2309F48CC01D
:1006600010922501C63911F0CA3931F48091280160
:100670008160809328011EC08C2F8B7F883931F4D4
:100680008091280182608093280114C0C73911F03D
:10069000CB3931F4809128018460809328010AC00D
:1006A000893931F48091280188608093280102C043
:1006B000C0932501809125018823A1F04091280154
:1006C000442329F06091260180912701C7D24091EF
:1006D00025016091260180912701B1D284E10E9419
:1006E000D01517C284E00E94D01513C29F3061F567
:1006F000DD2309F46AC0C03F31F4A2D516DF80E0E3
:100700000E94D01506C2E02FF0E0ED5EFE4F81E0C2
:1007100090E0AC0102C0440F551F1A95E2F78081AA
:10072000482B4083E3E1F1E0A1E5B7E085E291E009
:1007300021912D93E817F907D9F782E180931201EF
:1007400084E00E94D015E5C19830B1F4DD2309F4AE
:1007500075C08EEF820F833050F46FEF620F84E12B
:1007600090E00E947B0D80E00E94D01503C081E0E4
:100770000E94D015DADECDC19A3039F5DD2309F4B7
:1007800077C1C03FC1F490912D0180912C01880F59
:10079000282F220F220F820F24E6929F800D112412
:1007A000982F80912B01890F0E94CA1BBEDE80E02A
:1007B0000E94D015AEC161E0822FD0DE8111A9C1A7
:1007C00081E00E94D015B1DEA4C19930B9F5DD23D6
:1007D00009F49FC1C03F41F520912D0180912C016A
:1007E00090E0BC01660F771F880F991F880F991F33
:1007F000880F991F680F791F84E6289F600D711D6F
:10080000112480912B01680F711D6F3F710519F044
:1008100010F06AEF70E085E190E00E947B0D85DECC
:1008200080E00E94D01575C161E0822F97DE8111B2
:1008300070C181E00E94D01578DE6BC1933009F061
:1008400017C1DD2309F465C1C93239F40E94A70C30
:1008500085E00E94D01569DE5CC1C83209F004C190
:1008600090912B0180E6890F8E3080F480931101E6
:100870008F3040F40E94950C82E00E94D0150E94B7
:10088000A70CF0C081E00E94D015ECC0923F31F57A
:100890008091340182FF0EC08B7F8093340186E10A
:1008A00090E00E948C0D682F6E7F86E190E00E94A0
:1008B0007B0D0DC084608093340186E190E00E943E
:1008C0008C0D682F616086E190E00E947B0D809125
:1008D000340161E084700E949717C4C080912C019C
:1008E000863059F4903109F0FCC00E94980C0E94A7
:1008F000A70C80E00E94D015B5C020912D012531B4
:1009000071F48631C1F59731B1F5E0EEF0E0808108
:10091000816080836A98729A0C940000A3C02F3083
:10092000E9F48F30A1F5913139F480E00E94E717A6
:1009300080E00E94D01596C0973139F481E00E9482
:10094000E71780E00E94D0158DC09530F9F482E061
:100950000E94E71780E00E94D01584C0283059F427
:10096000843011F5963001F581E00E948F0D80E012
:100970000E94D01577C0293151F48830A9F49531FF
:10098000D9F44CD685E00E94D0156CC0282F2530B4
:1009900059F4873149F49531D9F481E01CDC85E0C4
:1009A0000E94D015C2DDB5C0873911F08B3921F412
:1009B000953311F427D156C0253051F4843041F4D9
:1009C0009E30B1F485E00E94D01586E027D64AC05B
:1009D000873031F49530A1F488E00E94D01542C0F0
:1009E000873131F49F3039F586E00E94D0153AC046
:1009F000803131F4973049F587E00E94D01532C03C
:100A00008E30C9F49F3059F520E0822F90E0FC0130
:100A1000ED5EFE4F1082FC01EF5AF84F108281E02C
:100A2000820F823110F4282FF0CF809312018FE0D3
:100A30000E94D01517C08B3041F49E3081F43BD119
:100A4000DBD184E10E94D0150DC0863041F49B308B
:100A500031F431D173D180E00E94D01503C081E020
:100A60000E94D01562DD55C060E08C2F77DD51C04B
:100A7000943009F04EC0DD2309F440C0C03F31F48A
:100A8000C6D780E00E94D01550DD43C0C83C79F540
:100A900072D7882321F089E00E94D0153AC084E003
:100AA0000E94D01536C08C2F79D78FEF8F0D8230F2
:100AB00080F58C2F13D460E08C2F0E94B40F29C0D6
:100AC00022E0F21205C08C2F69D78C2F07D404C006
:100AD0008FEF8F0D8230E8F461E08C2F0E94B40F0D
:100AE00018C020912D012F3009F038CF44CF50D7B6
:100AF000D82F51D78D0F823360F4D5CF49D7D82F57
:100B00004AD78D0F8233E0F282D780E00E94D01561
:100B10000CDDDF91CF911F910F91FF90089585E239
:100B200090E0FAD7817080933201109231011092D7
:100B3000300108950F931F93CF93DF93C82FD62FC3
:100B4000142F022F0E947E13C93261F1815082302E
:100B500008F03FC0C73911F0CB3991F4DD2339F0EB
:100B6000809130018F5F809330018C2F3FC0809146
:100B70003001882381F18150809330018C2F36C061
:100B8000DD2339F0809131018F5F809331018C2F0B
:100B90002DC080913101882301F181508093310172
:100BA0008C2F24C080913101811119C080913001B6
:100BB0008823B9F0602F812F0E94C60F882399F0F7
:100BC000DD2399F0809131018F5F8093310185E3BE
:100BD0000DC08C2F0BC08C2F09C08C2F07C089E251
:100BE00005C089E203C089E201C089E2DF91CF91AB
:100BF0001F910F91089581E090913201911101C0F0
:100C000080E00895CF9385E290E086D790913201FD
:100C1000913029F410923201C82FCE7F05C091E0A7
:100C200090933201C82FC16061E0809132010E942F
:100C300097176C2F85E290E05ED7CF91089590E0F2
:100C4000FC01EE0FFF1F8E0F9F1FFC01EE0FFF1F19
:100C5000E60FF11DE959F94F40830895CF93DF93D3
:100C600091E001C0990F6A95EAF7C82FD0E0CC0F48
:100C7000DD1FCC0FDD1FCB51D94F20E030E050E01D
:100C8000A82FB0E0AB5AB94FBA01022E02C0759539
:100C900067950A94E2F760FF06C0FE01E20FF31FBA
:100CA0008C91892B80832F5F3F4F2430310561F772
:100CB000DF91CF910895ECE6F6E088ED96E0DF0154
:100CC00015971C9211961C9211961C9211961C92CB
:100CD00011961C9210823696E817F90781F7109248
:100CE0002D0710922E0710922F07109230070895AB
:100CF000E82FF0E0DF01AA0FBB1FAE0FBF1FAA0F46
:100D0000BB1FA60FB11DA959B94F1C9281E090E0FD
:100D10009C0102C0220F331F6A95E2F7B90160956A
:100D2000EE0FFF1FEE0FFF1FEB51F94F80E0908198
:100D3000962391938F5F8430D1F708956F927F92BD
:100D40008F929F92AF92BF92CF92DF92EF92FF92DB
:100D50000F931F93CF93DF930F2EF5EEAF2EF6E098
:100D6000BF2EF02DC12CD12CE12CF12C712C612C3B
:100D70002DC06991C801880D991DBDD682E1880EEC
:100D8000911C88E488169104A1F7E601C959D94F4E
:100D9000872C962C8601065A1F4F6991C801880D31
:100DA000991DA9D68FEF881A980A86E088169104B3
:100DB000A1F78FEFE81AF80A86E0C80ED11C84E08C
:100DC000A80EB11C82E1E816F10439F0E501872C88
:100DD000962C87010A531F4FCCCFDF91CF911F91E3
:100DE0000F91FF90EF90DF90CF90BF90AF909F90CA
:100DF0008F907F906F9008956F927F928F929F92C5
:100E0000AF92BF92CF92DF92EF92FF920F931F9318
:100E1000CF93DF930F2EF5EEAF2EF6E0BF2EF02D21
:100E2000C12CD12CE12CF12C712C612C3DC0C801BE
:100E3000880D991D71D6899382E1880E911C88E4F2
:100E400088169104A1F7E601C959D94F872C962C31
:100E50008601065A1F4FC801880D991D5DD68993DA
:100E60008FEF881A980A86E088169104A1F786E128
:100E700090E052D680FD06C0809134018B7F809334
:100E8000340105C0809134018460809334018FEF78
:100E9000E81AF80A86E0C80ED11C84E0A80EB11C3E
:100EA00082E1E816F10439F0E501872C962C8701E0
:100EB0000A531F4FBCCFDF91CF911F910F91FF902D
:100EC000EF90DF90CF90BF90AF909F908F907F90EA
:100ED0006F9008958091340181FD0FC0887F8093C9
:100EE000340186E190E018D680FF05C0809134017E
:100EF000846080933401DFDE7FCF089590E0FC01B1
:100F0000EE0FFF1F8E0F9F1FFC01EE0FFF1FE60F5E
:100F1000F11DE959F94F808108951F93CF93DF9315
:100F2000162FC82FD0E0FE01EE0FFF1FEC0FFD1FA4
:100F3000EE0FFF1FE60FF11DE959F94F80818093F5
:100F40003301882309F4D6C0442309F468C0FE01A4
:100F5000EE0FFF1FEE0FFF1FEB51F94F808190E066
:100F6000062E02C0959587950A94E2F780FF07C088
:100F700061E086E9F9D761E086E90E94A120FE01DF
:100F8000EE0FFF1FEE0FFF1FEB51F94F818190E035
:100F9000012E02C0959587950A94E2F780FF07C05D
:100FA00061E088E9E1D761E088E90E94A120FE01C3
:100FB000EE0FFF1FEE0FFF1FEB51F94F828190E004
:100FC000012E02C0959587950A94E2F780FF07C02D
:100FD00061E087E9C9D761E087E90E94A120CC0FD1
:100FE000DD1FCC0FDD1FCB51D94F6B8170E002C0EC
:100FF000759567951A95E2F760FF07C061E089E98A
:10100000B3D761E089E90E94A12061E080913301BA
:10101000ABD761E0809133010E94A12068C0FE013E
:10102000EE0FFF1FEE0FFF1FEB51F94F838190E092
:10103000062E02C0959587950A94E2F780FF07C0B7
:1010400060E089E991D760E089E90E94A120FE0172
:10105000EE0FFF1FEE0FFF1FEB51F94F828190E063
:10106000012E02C0959587950A94E2F780FF07C08C
:1010700060E087E979D760E087E90E94A120FE015E
:10108000EE0FFF1FEE0FFF1FEB51F94F818190E034
:10109000012E02C0959587950A94E2F780FF07C05C
:1010A00060E088E961D760E088E90E94A120CC0F68
:1010B000DD1FCC0FDD1FCB51D94F888190E0BC01E3
:1010C00002C0759567951A95E2F760FF07C060E06A
:1010D00086E94AD760E086E90E94A12060E080911D
:1010E000330142D760E0809133010E94A1208091BA
:1010F000330101C080E0DF91CF911F9108950F93DC
:101100001F93CF93DF93182F062FD42FDAD7C82F32
:1011100072DD882331F0202F412F6D2F8C2F0ADDB7
:10112000C82F84D1811145C0CF3E61F407DA811107
:1011300009C04D2F602F812FF0DEC82F6AD1882380
:1011400009F439C08C2F65D1882359F06FD18111F2
:1011500008C0F4D9811105C06D2F8C2FC1D180E05A
:1011600037C06D2F8C2F62D8811127C0CC2351F04E
:10117000E5D9882339F02D2F402F612F8C2F03DAEA
:1011800080E026C06D2F8C2F7ED8811118C08FEF84
:101190008C0F8D39B0F449D7811115C08091630748
:1011A00082FF13C0602F812F7DD0882381F080E0E3
:1011B0000FC080E00DC080E00BC080E009C080E07F
:1011C00007C08C2F05C08C2F03C08C2F01C08C2F23
:1011D000DF91CF911F910F910895DF92EF92FF92CF
:1011E0000F931F93CF93DF9303E617E0C1E5D7E09A
:1011F000D12C88E490E09C01215537407901C7014A
:101200008C0F9D1F89D489938F3F09F4D394C01705
:10121000D107A9F730E13D1530F4E1E5F7E011928F
:10122000E017F107E1F78091630788608093630717
:10123000DF91CF911F910F91FF90EF90DF90089574
:10124000EF92FF920F931F93CF93DF93C1E5D7E007
:1012500003E617E087E490E09C01215537407901CF
:101260006991C7018C0F9D1F46D4C017D107C1F7E4
:10127000DF91CF911F910F91FF90EF900895809192
:10128000630783FD0AC088608093630706C01192DC
:10129000E817F907E1F7A1CF0895E1E5F7E083E664
:1012A00097E0F5CFCF93DF93D82FC62F80916307B8
:1012B00083FFE5DFED2FF0E0EF5AF84F81E090E09B
:1012C000BC0102C0660F771FCA95E2F780816823D0
:1012D00081E009F480E0DF91CF9108959CEF980FB1
:1012E0009A3978F591E7980F973058F120918B0152
:1012F00030918C012F5F3F4F307833232CF42150F5
:1013000031093F6F2F5F3F4FA90130938C0120932C
:101310008B016091890170918A012617370769F462
:101320002115310519F04150510902C04FEF50E02D
:1013300050938C0140938B010895F901E257FE4FC1
:10134000808308958091890190918A0120918B0179
:1013500030918C018217930781F001969078992340
:101360001CF401979F6F019690938A0180938901E5
:10137000FC01E257FE4F8081089580E0089590912E
:10138000380191112DC0DEDF982F8AE6890F883051
:10139000D8F41092380121E030E08AE6890F02C0CB
:1013A000220F331F8A95E2F780913701482F42239D
:1013B00031F0209582238093370180E00895282B17
:1013C0002093370181E008959093380181E0809364
:1013D0008D0108951092380110928D0180E00895DA
:1013E0008AE6890F8830A8F2F5CF209189013091E3
:1013F0008A0180918B0190918C012817390739F46B
:1014000081E090918D01992319F080E0089580E0AA
:10141000089590E6980F9F3038F09CE4980F81E093
:10142000943118F080E0089581E0089581E0909172
:101430007D01913009F080E0089580917D01823036
:1014400039F081E090917201911103C080E008951C
:1014500081E0089590E0FC01E05BF74AE491F0E060
:10146000F0937501E0937401FC01EC59F74AE491A3
:10147000EE2319F022E020937D019A5E880F991FD8
:10148000880F991FFC0124913196E49130E0322FAE
:1014900022272E0F311D3093820120938101FC0100
:1014A000329644913196E491842F90E0982F8827CA
:1014B0008E0F911D90938401809383012817390723
:1014C00018F010927D010895109286011092850106
:1014D0000196821B930B9093880180938701089556
:1014E0001F93CF93DF93C82F10E6180F1F3038F0EB
:1014F0001CE4180F143108F08DC0D3E001C0D1E016
:10150000662309F474C099DF811184C0C0938001FF
:10151000D13009F07CC081E080937E01C12FD0E002
:10152000CE01C496F9D292E39C9F90019D9F300D0D
:101530001124225F3E4F10937F013093820120934C
:1015400081012F5C3F4F30938401209383011092DF
:1015500086011092850121E330E0309388012093C9
:101560008701811104C088ECF9D4882321F082E03E
:1015700080937D0103C081E080937D0185E190E04F
:10158000CBD290E0909375018093740108C083E002
:1015900080937E0181E080937D01812F5BDF8091CC
:1015A0007D01823021F481E08093720102C01092AB
:1015B000720110927301109277011092760181E00E
:1015C00080937C0110927B0110927A0180917401CA
:1015D000909175010097F1F042E3489F9001499F77
:1015E000300D1124309375012093740113C0809144
:1015F0007201882379F0809180018C130BC01092C6
:10160000800110927D0181E08093730103C0D3308B
:1016100009F4BDCFDF91CF911F91089510928601FB
:101620001092850110927701109276011092750147
:1016300010927401863041F438D281E080937D01AC
:1016400086E080937E010895883031F481E08093B4
:101650007D0188E080937E010895823979F028F435
:10166000803949F08139C9F015C0843969F048F0F2
:10167000853969F00FC084E690E0089584EF91E029
:10168000089582EE94E0089584EC99E0089588E846
:1016900093E1089580E090E008958AEF90E0089546
:1016A00020917E01213041F420918101309182010D
:1016B000820F931F31C20895233049F42091810194
:1016C00030918201FC01E20FF31F849108958FEFA6
:1016D000089580917E018830E1F4E0918501F091D8
:1016E0008601EE50F84A84919FEF980F9E3F18F4C0
:1016F000EF3FF74528F010927D011092720101C072
:10170000EDDDE5E8F1E080819181019691838083B0
:1017100008958630B1F4E0918501F0918601F85A80
:101720008491E115F04728F010927D01109272012A
:1017300001C0C0D1E5E8F1E08081918101969183FB
:1017400080830895CF9351DE882309F4ECC0809103
:101750007D01811105C080917201882309F4E3C0E5
:101760008091760190917701A0D290937901809336
:101770007801009709F4D7C020917C01222359F009
:101780001092360110923501109279011092780171
:1017900010927C010DC020917601309177012817BD
:1017A000390730F4821B930B9093360180933501F7
:1017B00080917A0190917B010097F9F02091780156
:1017C00030917901821B930B18161906B4F490938B
:1017D00077018093760120913501309136012817E9
:1017E000390730F4821B930B909377018093760135
:1017F00010927B0110927A0196C0809174019091B1
:10180000750120913501309136012817390710F400
:10181000821B930B909377018093760180917E01D8
:10182000883011F0863011F454DF7DC0209185019D
:10183000309186018091870190918801281739079E
:1018400098F080917D01823021F48091730188238A
:1018500039F0109272011092730110927D0163C0F1
:1018600010928601109285018091850190918601E8
:1018700017DFC82FF2DE0097B9F0E5E8F1E040810C
:1018800051814F5F5F4F5183408340917801509168
:10189000790148175907F9F09C01241B350B309347
:1018A0007B0120937A013FC0209185013091860110
:1018B000C901019640918701509188014817590745
:1018C00010F480E090E0ECDEC8DE892B21F010926D
:1018D000770110927601CF3FE9F480917D0182304B
:1018E00021F480917301882339F0109272011092D3
:1018F000730110927D0117C0E5E8F1E080819181CC
:1019000090938801809387011182108280E090E09B
:10191000C7DEC82FE5E8F1E08081918101969183CF
:1019200080838C2FDBDCCF91089580936E01089526
:10193000CF93DF93CEE0D1E06FEFCE01DCD02196E4
:10194000CC3F83E0D807C1F7DF91CF910895E9E359
:10195000F1E08BE691E02FEF2193E817F907E1F72B
:101960001092700110926F0110926D0110926B0134
:1019700010927101089580917101882319F01092DD
:10198000710103C081E0809371018091710108951C
:1019900080916D01089580916C01089520916F01EF
:1019A00030917001F901E75CFE4F808399E6980F52
:1019B000963008F5865941E050E0BA0102C0660F42
:1019C000771F8A95E2F7CB0140916B01542F562384
:1019D00051F08095482340936B01ECE6F1E0808163
:1019E0008150808308C0842B80936B01ECE6F1E08A
:1019F00080818F5F80832F5F3F4F309370012093F2
:101A00006F01EDE6F1E080818F5F80830895BF92E2
:101A1000CF92DF92EF92FF920F931F93CF93DF93BA
:101A2000C9E3D1E00F2EFBE6EF2EF1E0FF2EF02D03
:101A30000EE611E00F2EF2E3BF2EF02D8DE091E0C7
:101A40009C012953314069016991F8012081C60147
:101A50008C0F9D1FB29E800D911D11244CD0CE1570
:101A6000DF0591F780916E0190E060917101C4965D
:101A700042D0DF91CF911F910F91FF90EF90DF90B7
:101A8000CF90BF900895882361F09FEF980F993011
:101A900010F4835E089596EF980F963020F48650E8
:101AA000089587E2089580E0089510928F021092C1
:101AB0008E020895CF93DF93C82F82958F70E3DF56
:101AC000D82F8C2F8F70DFDFC82F8D2F07DC8C2F46
:101AD00005DC80918E0290918F02019690938F0287
:101AE00080938E028F719927892B11F488E2F6DB9F
:101AF000DF91CF9108951F93CF93DF93EC01162FC1
:101B00000E94E625811721F0612FCE010E94EE256B
:101B1000DF91CF911F9108950C94E62508958823B5
:101B200071F081E080939202DCD761E08BE038D7DE
:101B300061E08AE035D761E08CE032D70BC01092CB
:101B4000920280E0CED721E040E060E270E083E0E6
:101B50000E94DF15109291021092900208958091D8
:101B60009202882309F44FC08091900290919102D3
:101B70009C012C5031092730310568F085329105E0
:101B800051F02A5031092230310528F02E51310907
:101B90002431310518F460E0AEDF2BC084319105AB
:101BA00029F461E084E190E0A6DF23C0853191054E
:101BB00019F08432910519F465E09DDF1AC088316F
:101BC000910529F468E288E190E095DF12C08F3F2B
:101BD00023E0920760F080E0A2DFE0EEF0E0808199
:101BE000816080836A98729A0C94000002C06FEF43
:101BF00082DF8091900290919102019690939102E0
:101C00008093900281E008958093A2020895EEE609
:101C1000F0E080818E7F8083EFE6F0E080818E7F30
:101C20008083E1E7F0E080818E7F8083E2E7F0E06F
:101C300080818B7F80830895E1E8F0E08081887F58
:101C40008260808310928500E4E8F0E01082AFE6C5
:101C5000B0E08C9181608C9380EE9FEF91838083C4
:101C60000895EFE6F0E080818E7F8083089582E022
:101C70008093910088E39FEF909395008093940068
:101C8000E1E7F0E08081816080830895E82FF0E053
:101C9000E356FD4F6083089580919A0290919B02D4
:101CA00010929B0210929A0208952091970230910F
:101CB00098022817390748F080919702909198026E
:101CC0001092980210929702089580E090E0089593
:101CD00020919502309196022817390748F080919B
:101CE0009502909196021092960210929502089594
:101CF00080E090E00895809193029091940208957D
:101D0000109294021092930208951F920F920FB6B0
:101D10000F9211242F938F939F9388E39FEF9093BB
:101D200095008093940080919A0290919B02803D4F
:101D3000974048F480919A0290919B02019690936B
:101D40009B0280939A0280919702909198028C3D19
:101D50009F4F48F48091970290919802019690933A
:101D600098028093970280919502909196028C3D03
:101D70009F4F48F48091950290919602019690931E
:101D8000960280939502809199028F5F80939902C9
:101D900080919902853090F010929902809193027F
:101DA000909194028C3D9F4F48F4809193029091C2
:101DB0009402019690939402809393029F918F9145
:101DC0002F910F900FBE0F901F9018951F920F929A
:101DD0000FB60F9211248F939F938091A2028111CD
:101DE00007C080EE9FEF909385008093840078C0B9
:101DF00080919C028F5F80939C028F3F11F4109220
:101E00009C028091A202873009F464C08091A202F2
:101E1000853051F490919F0280919C02891710F4B3
:101E20002B9A58C02B9856C08091A202843029F575
:101E300090919F0280919C02891710F42B9A01C007
:101E40002B9890919E0280919C02891710F42A9AF7
:101E500001C02A989091A10280919C02891710F4E8
:101E60002E9A01C02E9890919D0280919C02891714
:101E700010F42D9A2FC02D982DC090919F02809123
:101E80009C02891710F4299A01C029989091A00208
:101E900080919C02891710F42A9A01C02A98909187
:101EA0009E0280919C02891710F42B9A01C02B98F6
:101EB0009091A10280919C02891710F45E9A01C052
:101EC0005E9890919D0280919C02891710F4769AF9
:101ED00001C0769880EE9FEF9093850080938400F8
:101EE0009F918F910F900FBE0F901F90189570E0EB
:101EF000660F771F9B01220F331F220F331F220F04
:101F0000331F620F731F680F711DDB01A955BC4F92
:101F10004C93E42FF0E0E955FD4F80818F5F808383
:101F2000089570E0660F771FFB01EE0FFF1FEE0FA5
:101F3000FF1FEE0FFF1F6E0F7F1F680F711DFB014C
:101F4000E955FC4F80818093A3021082E82FF0E0D6
:101F5000E955FD4F9081915090830895E82FF0E06E
:101F6000E955FD4F80810895662341F0E82FF0E0A8
:101F7000E955FD4F80818F5F80830895E82FF0E061
:101F8000E955FD4F808181508083089570E0660F90
:101F9000771F9B01220F331F220F331F220F331F86
:101FA000620F731F680F711DFB01E955FC4F8081A3
:101FB000893289F4E0EDF2E0808181508083FB0179
:101FC000E955FC4F85E38083ECEDF2E080818F5F83
:101FD000808381E0089580E008958091A4028823A1
:101FE00049F01092A40221E040E064E170E081E059
:101FF000E6C5089581E08093A40221E040E067E017
:1020000070E083E0DCC508959091A402992349F023
:10201000462F682F87E04CD39FEF980F9E3F18F410
:10202000089580E0089580E008958091130484FD70
:1020300008C0882344F0982F907681E029F480E04E
:10204000089581E0089581E0089580911404089531
:102050008093140408958091140481110EC084E1CA
:1020600090E05ADD9FEF980F933018F4809314049A
:10207000089581E080931404089510921404089543
:102080008091130484FD0AC036DE883E934010F030
:102090001092A6028091130484FF04C08091A602CE
:1020A0008C5F089585FD07C086FD07C088233CF03E
:1020B00080911404089586E0089585E0089584E0F1
:1020C00008950F931F93CF93DF93D82F162FC42F0C
:1020D000D7DFCC2309F47FC0412F6D2FE9D2C82F61
:1020E0008091A602882349F0C33E99F080911304A1
:1020F00084FD09C01092A60212C08091130484FFCF
:1021000006C0C33E31F081E08093A50208C0C33E03
:1021100031F48091130480618093130408C0C23E9F
:1021200031F4809113048062809313040FC0C13E88
:1021300031F48091130480648093130407C0C03E7F
:1021400029F4809113048068809313048091A40281
:10215000882351F0612F8D2F57DF082F882319F026
:1021600064DF882329F039DF60DF811118C001C0E6
:10217000C02F8091A402811112C08091340180FF90
:102180000EC0612F8D2F0E947E07811105C08091A6
:10219000340182FD03C003C0CFEE01C0CFEE212F7A
:1021A00030E0220F331FF901EE0FFF1FEE0FFF1F6C
:1021B000EE0FFF1FE20FF31FED0FF11DE955FC4F6E
:1021C0008081811105C04C2F612F8D2F90DE01C0C1
:1021D000C0E08AD445C0612F8D2FA3DEC82F833E77
:1021E000D9F480918A0381112FC0809113048F7ECE
:1021F000809313048091A502882329F01092A602EF
:102200001092A50221C08091A6028230E8F48F5F6F
:102210008093A60275DD18C0803E51F4809187033B
:1022200081111EC0809113048F778093130418C00E
:10223000813E51F480918803811116C0809113046E
:102240008F7B8093130410C0C23E51F480918903A8
:1022500081110AC0809113048F7D8093130404C000
:1022600080E28C0F843008F4C0E08C2FDF91CF9196
:102270001F910F910895809115049091160408956F
:102280001092160410921504089584B7877F84BFB6
:1022900088E10FB6F89480936000109260000FBE42
:1022A00090E080E80FB6F89480936100909361000D
:1022B0000FBE0E94911C25D30E94EE1B0E944E1D52
:1022C0000E948F05A4DC0C944A23089581E080933A
:1022D00003010895089542E061EC81E00E944022EC
:1022E00042E060EC82E00E944022E2EEF0E0808179
:1022F000846080830895CF9380916F07893069F05F
:1023000030F4823009F471C0833031F186C08A30F4
:1023100009F44DC08B30A1F180C080916E078132ED
:1023200009F07BC0E8EEF0E08081877F808305C004
:1023300080916D07882309F470C0808182FFF8CFF7
:10234000C091F100E8EEF0E080818B7780830E94FD
:10235000A4228C2FC3D461C080916E07813A09F00A
:102360005CC0E8EEF0E08081877F8083809103018C
:102370008093F10080818E7780830E94A4224DC0DB
:1023800080916E07813209F048C0E8EEF0E080816C
:10239000877F80830E94A42221E080917007909122
:1023A0007107892B09F420E02093030136C0809146
:1023B0006E07813291F5E8EEF0E08081877F8083BF
:1023C0000E94A422809170079091710788270024B1
:1023D000880F991F001C880F991F001C892F902DB2
:1023E000909302018093010118C080916E07813A99
:1023F000A1F4E8EEF0E08081877F80838091010185
:102400009091020196958795969587958093F10016
:1024100080818E7780830E94A422CF91089580913D
:10242000170490911804009729F0019790931804CD
:10243000809317040895CF9392DB811121C00E94ED
:10244000F50981111CC00E94BA1F8823C9F080E0E1
:102450000E94B71F0E94BF09C92F813041F461E07B
:10246000892F82DD61E08C2F0E94A12009C060E0ED
:10247000892F7ADD60E08C2F0E94A12001C089D0D5
:10248000CF91089580910101909102010097A9F0E8
:102490002091170430911804232B79F49093180499
:1024A0008093170481E08093E9008091E80085FF24
:1024B00009C081E00C94B71F089581E08093E90082
:1024C0008091E800089582E08093E9008091E8001F
:1024D00082FF0CC08091E80085FF03C08091F1006D
:1024E000FDD3E8EEF0E080818B77808308958091C2
:1024F0006D07843029F01092160410921504089587
:102500008091150490911604883E2DEF920728F4CF
:1025100001969093160480931504D5CF0895B5DEE7
:102520007894A5DB52D1811101C086DB0E943F095E
:102530000E946A070E94B51F61E08091670430D253
:1025400080916D07843031F00E948F2580916D0756
:102550008430D1F760E08091670422D2C8DF92DF37
:102560000E94F600882341F0109216041092150480
:1025700078D70E94FD0009C080916D07843011F06A
:1025800070D703C058DF0E9473200E948F258BD71D
:10259000E5CF2F923F924F925F926F927F928F92F0
:1025A0009F92AF92BF92CF92DF92EF92FF920F93E2
:1025B0001F93CF93DF9300D000D0CDB7DEB7C2D842
:1025C000BFD30E94160A81115CC00E94711E88232D
:1025D00009F457C00E94161F89839A830F2EF9E1D0
:1025E000AF2EF4E0BF2EF02D0F2EFBE2CF2EF4E045
:1025F000DF2EF02DE82EF92E8501212C312C882498
:102600008394912C55245394412C2BC06B81D7017A
:102610002C91C401062E02C0880F991F0A94E2F77C
:10262000922F9823F80120818223891759F0752C65
:10263000911101C0742C472D862D0E947F08672DB3
:102640000E94A1208B819C8101969C838B8306979D
:10265000E9F60F5F1F4F9FEFE91AF90A0C151D05E8
:1026600029F0602E6A182B823C82D0CFE9E1F4E099
:1026700029813A81D9018D919D018193CE16DF0682
:10268000C9F70F900F900F900F90DF91CF911F918E
:102690000F91FF90EF90DF90CF90BF90AF909F9001
:1026A0008F907F906F905F904F903F902F90089504
:1026B00050E09CE6899F400D511D112470E0FB0104
:1026C000EE0FFF1F6E0F7F1F660F771F460F571FFE
:1026D000E0910401F0910501E40FF51F8491089544
:1026E0009AE6980F983040F49AE6980F81E001C07E
:1026F000880F9A95EAF7089580E008959CEF980F67
:102700009E37A0F09AE6980F983090F090E6980FD8
:10271000993280F090E7980F963070F0823D70F417
:10272000882371F08F3F71F480E2089581E008956D
:1027300082E0089588E0089580E4089584E0089593
:1027400080E1089580E00895109266041092650477
:1027500010920B01089521E030E0A90102C0440F5E
:10276000551F8A95E2F7CA014091790450E09C0117
:102770002423352381E0121613060CF080E008951F
:1027800021E030E0A90102C0440F551F8A95E2F70D
:10279000CA0120917904822B80937904089521E065
:1027A00030E0A90102C0440F551F8A95E2F7242F9B
:1027B00020958091790428232093790408956091CD
:1027C0006E0482E190E097C9089580916E04881F9D
:1027D0008827881F08950F931F93CF93DF930FE6E9
:1027E00014E0CCE0D0E0CE0197D9F80181938F01BD
:1027F0002196C131D105B9F706E011E0C9E1D0E079
:10280000CE018AD9F80181938F012196CE31D1056D
:10281000B9F786E190E080D982FF06C08091630716
:1028200081608093630705C0809163078E7F8093EA
:1028300063078091630782608093630787E190E07C
:102840006BD9809377048093760482E190E064D919
:102850008F3F19F080936E0402C010926E0481E0E5
:1028600080930B01DF91CF911F910F9108950F93EA
:102870001F93CF93DF930FE614E0CCE0D0E0F80194
:1028800061918F01CE0137D92196C131D105B9F7B8
:1028900096DF06E011E0C9E1D0E0F80161918F0117
:1028A000CE0129D92196CE31D105B9F780916307A0
:1028B00081FD14C086E190E02FD99091630790FFCD
:1028C00003C0682F646002C0682F6B7F86E190E0D0
:1028D00012D98091630782608093630760917704C7
:1028E00080917604681729F06093760487E190E080
:1028F00002D981E080930B01DF91CF911F910F915D
:102900000895CF93DF9300D000D01F92CDB7DEB7EC
:102910000E94CD1C29833A834B835C836D83822F75
:102920009CEF920F923028F494B19A6094B9299A4E
:102930002B98873051F46E9A209A769A289A809133
:102940006E04806880936E041BC0843039F484B1B7
:10295000846684B92A982D982E9812C0215022306E
:1029600078F484B18F6184B9289A2C9A29982A988E
:102970002B988AB1806C8AB95F9A5E986E9A769825
:102980001092790480E0FCDE26DF8D81809367045D
:102990000F900F900F900F900F90DF91CF910895AF
:1029A000CF93DF93C82FD62FF5D7982F8CEF890FB1
:1029B000823058F59430C1F4C13031F4DD2311F088
:1029C0002A9A6FC02A986DC0C11106C0DD2311F08C
:1029D0002D9A67C02D9865C0C43031F4DD2311F005
:1029E0002E9A5FC02E985DC0CB3031F4DD2311F0FC
:1029F000299857C0299A55C0C23009F052C0DD232A
:102A000011F02B9A4EC02B984CC0973089F4CB30E4
:102A100031F4DD2311F0769844C0769A42C0CC3070
:102A200009F03FC0DD2311F028983BC0289A39C037
:102A30008C2F90E08D309105A0F5FC01EA5AFF4FF4
:102A40000C94BD25DD2311F028982BC0289A29C0AD
:102A5000DD2311F02C9825C02C9A23C0DD2311F022
:102A60005F981FC05F9A1DC0DD2311F0299A19C01D
:102A7000299817C0DD2311F02A9A13C02A9811C093
:102A8000DD2311F02B9A0DC02B980BC0DD2311F024
:102A9000769A07C0769805C0DD2311F05E9A01C0D2
:102AA0005E98DF91CF910895CF93DF93C0E0D0E09F
:102AB00080916E0490E00C2E02C0959587950A9443
:102AC000E2F780FD04C060E08C2F6ADF03C061E0A4
:102AD0008C2F66DF2196C530D10551F7DF91CF915C
:102AE000089580937804089580916E0488230CF4EF
:102AF00056C080912F04811152C00E949E02811104
:102B00004EC08091630780FD0AC01092400410926D
:102B10003F048CEF92E0909354048093530484E13B
:102B200090E09093600480935F048FEF90E0909327
:102B30004C0480934B0480913B0490913C048A3F69
:102B400091052CF4019690933C0480933B042091D2
:102B50003A04822F90E002968837910524F42E5F84
:102B600020933A0403C088E780933A042091390403
:102B7000211104C08FE0809339040DC0822F90E0B2
:102B80000F968F3F910524F4215F2093390403C0F1
:102B90008FEF8093390410926404109263040895B7
:102BA000CF93C82F80936D040E949E02811105C0AF
:102BB000C11103C081E00E94A502CF910895FF9248
:102BC0000F931F93CF93DF93182FEB01F42E022F57
:102BD00085E0D6DDFF2019F086E0D2DD02C086E078
:102BE000DEDD002319F087E0CBDD02C087E0D7DD12
:102BF000110F1F5F10936804D0936A04C093690497
:102C000010926C0410926B04DF91CF911F910F9181
:102C1000FF900895EF92FF920F931F93CF93DF934E
:102C200000D000D01F92CDB7DEB7B7D629833A8344
:102C30004B835C836D8390917C0480917B04981717
:102C400009F440C07E0182E0E80EF11C00E010E0D3
:102C500060917C0480917B04862790E0002E02C066
:102C6000959587950A94E2F780FF20C070E0002ECA
:102C700002C0759567950A94E2F76170F70180814B
:102C8000813021F48AE0800F8BDE10C0823071F435
:102C9000662331F021E040E069E170E090DF06C09A
:102CA00021E040E063E270E081E089DF0F5F1F4FC9
:102CB000FFEFEF1AFF0A0330110551F680917C04F3
:102CC00080937B040F900F900F900F900F90DF91E7
:102CD000CF911F910F91FF90EF90089580937C0406
:102CE00081FF04C081E080937A0402C010927A04CC
:102CF00080917804811101C08DCF0895CF93DF9327
:102D0000D82FC62F90913504911101C01DDDCC2321
:102D100081F01092380487E0809337048CE0809330
:102D20003604DD2319F083E02BDD07C084E028DDC5
:102D300004C083E034DD84E032DDDF91CF9108957B
:102D4000CF92DF92EF92FF920F931F93CF93DF9377
:102D50008091790482FF83C090913804191624F47D
:102D60009150909338047BC083FF1CC08091350440
:102D7000882381F1A0E3B4E0E6E0F1E085E394E0AC
:102D800039E12D91222349F02081293110F430833B
:102D900004C02F3F11F02F5F20833196A817B90789
:102DA00081F718C084FF16C080913504882391F004
:102DB000E0E3F4E0A6E0B1E085E394E02191222392
:102DC00029F02C912A3110F021502C931196E817FC
:102DD000F907A1F740913604609137046F5F542FD3
:102DE0005695262F30E0852F90E0019782179307A4
:102DF0001CF06093370403C0515050933704809106
:102E00003704481BD2F41092380419C08C2F8C1947
:102E10009991992329F0F80160810E94460E03C020
:102E200060E00E94460E0F5F1F4FCE15DF0571F761
:102E3000109266041092650412C0409338040F2E5D
:102E4000F0E3CF2EF4E0DF2EF02D06E011E00F2EA0
:102E5000F5E3EF2EF4E0FF2EF02DE601D7CFDF9162
:102E6000CF911F910F91FF90EF90DF90CF90089539
:102E7000CF93C82F69DC40916E04442364F550E081
:102E80000C2E02C0559547950A94E2F740FD11C0FB
:102E900061E08C2F85DD41E050E09A0102C0220FF5
:102EA000331FCA95E2F780916E04282B20936E049D
:102EB0003CC060E08C2F74DD41E050E09A0102C01C
:102EC000220F331FCA95E2F7209580916E042823C4
:102ED00020936E042AC02C2F30E0F901E159FB4FFA
:102EE0008081882334F0F901E159FB4F80688083A9
:102EF0000BC0F901E159FB4F8F7790E0019665E037
:102F000070E00E94AA258083F901E159FB4F3081CE
:102F10003F773F5F632F70E08EE190E00E94AA252B
:102F2000772721E040E0832F4ADECF910895462F96
:102F3000882331F021E06AE070E083E040CE08951C
:102F400021E064E170E081E03ACE0895CF93C82F8C
:102F5000882341F080916E04806880936E040E9403
:102F6000310E07C080916E048F7780936E040E94AB
:102F70001C0E60E08C2FDBDF22DCCF910895CF9315
:102F8000DF9363D8C1E0C80F6C2F70E09B01215024
:102F90003109D22FDD0FDD0F2D0F8EE190E00E9461
:102FA000AA25D22FD60F0E949E02882339F06D2FBA
:102FB00070E021E041E08C2F02DE06C06D2F70E052
:102FC00021E040E08C2FFBDDDF91CF9108958093CD
:102FD0007704BACB0895282FE82FF0E0EA5FFE4F80
:102FE0008081689FC00111246FEF70E00E94AA25C4
:102FF000822F0C94460E08953F924F925F926F92EB
:103000007F928F929F92AF92BF92CF92DF92EF9278
:10301000FF920F931F93CF93DF9380916E048823C9
:10302000BCF480912F04882379F080912E048111C3
:1030300006C2C0E060E08C2FB3DCCF5FC530D1F7B3
:1030400081E080932E04FBC12FDD10922E04F7C186
:103050008091790482FD04C080913504882311F1A8
:103060000F2EF0E3CF2EF4E0DF2EF02D06E011E07E
:103070000F2EF5E3EF2EF4E0FF2EF02DE6018C2F5E
:103080008C199991992329F0F80160810E94460ECC
:1030900003C060E00E94460E0F5F1F4FCE15DF0594
:1030A00071F7CDC180912F04882381F080912E0487
:1030B0008111C5C1C0E060E08C2F0E94460ECF5F39
:1030C000C530C9F781E080932E04B9C180912E04E8
:1030D000811110922E040F2EFFE68F2EF4E09F2E0A
:1030E000F02D04E714E0F401C0E081918F7711F432
:1030F000C1600FC0813011F4C2600BC0823011F486
:10310000C46007C0833011F4C86003C0843009F480
:10311000C061E017F10749F7C0FF06C08FEF90E0EC
:103120009093480480934704C1FF33C040913F040B
:10313000509140044230510509F04BC1A3E5B4E081
:10314000ED91FC9111973196ED93FC9310924A0406
:103150001092490406C08095909590934A048093FC
:103160004904ED3FF24070F0109254041092530461
:10317000CA01019663E070E00E94AA259093400482
:1031800080933F04E3E5F4E080819181019691838F
:103190008083C2FF36C080915F04909160040097E5
:1031A00031F001979093600480935F042AC080916E
:1031B0004B0490914C0418161906FCF42091550408
:1031C000309156042F5F3F4F2330310528F4309360
:1031D00056042093550415C01092560410925504BD
:1031E000069799232CF090934C0480934B0409C0CC
:1031F00010924C0410924B0404C01092560410928A
:103200005504C3FF73C080912D04882321F08150A1
:1032100080932D040AC086E180932D0480913A04A6
:10322000882319F0815080933A04E0913A048DECA0
:10323000E89FE12D1124E695E695E6954091570427
:10324000509158049A01ABEABAEA0E94C3259695B8
:10325000879590934E0480934D04209143043091C0
:1032600044042130310531F48095909590934E04BB
:1032700080934D044D3F524090F0109258041092AC
:103280005704C901019681709078992324F401971D
:103290008E6F9F6F019690934404809343042E2F6A
:1032A00030E0E7E5F4E0808191810196820F931F81
:1032B00091838083409143045091440442305105EE
:1032C00041F42F5F3F4F820F931F909358048093D8
:1032D000570480915704909158048E3F924030F0EB
:1032E0008DEF92E09093580480935704C4FF85C0FB
:1032F00080912C04882321F0815080932C040AC0F3
:1033000083E080932C0480913904882319F0815044
:10331000809339048091630490916404009731F0A4
:103320000197909364048093630467C083E090E006
:1033300090936404809363048091590490915A049B
:103340002091390430E02817390730F40197909321
:103350005A048093590408C08217930728F40196F1
:1033600090935A04809359048091590490915A047F
:103370009093500480934F0440C08C2F881929915A
:10338000922F9F7719F4F701608115C0913019F4DD
:10339000F601608110C0923019F4F50160810BC014
:1033A000933019F4F301608106C0943019F4F201EE
:1033B000608101C0632D22231CF460950CDE01C0E6
:1033C0000ADE0C171D07C9F610923C0410923B044C
:1033D00036C0E0915304F09154049F01ABEABAEA7D
:1033E0000E94C325969587954130510509F4B3CEC7
:1033F00090934A0480934904B4CECFE6D4E0312CB4
:103400000F2EFFE44F2EF4E05F2EF02D0F2EFDE483
:103410006F2EF4E07F2EF02D0F2EFBE4AF2EF4E0A4
:10342000BF2EF02D0F2EF9E4CF2EF4E0DF2EF02D7D
:103430000F2EF7E4EF2EF4E0FF2EF02D9ECFDF915C
:10344000CF911F910F91FF90EF90DF90CF90BF90A1
:10345000AF909F908F907F906F905F904F903F9034
:103460000895CF9380916E04882344F4C0E060E017
:103470008C2F96DACF5FC530D1F708C0C0E060E08E
:103480008C2F0E94460ECF5FC530C9F760E08CE0FC
:1034900087DA60E08BE084DA60E08AE081DA10921B
:1034A0007C04CF910895CF938AE090E00E94680E4B
:1034B000892B09F46DC16ED2C82F9091790490FDCB
:1034C00002C01FDA65C195FF82C080917804811126
:1034D00002C0109278045ED29091790496FF0AC0DF
:1034E00090917A04992381F08450823080F090E0AA
:1034F00041E015C090917A04992361F084508230A4
:1035000060F091E040E00BC090E041E008C091E045
:1035100040E005C091E040E002C090E041E0209131
:103520006B0430916C042115310539F021503109BB
:1035300030936C0420936B048AC0809168048823C4
:1035400019F081508093680480912B04882381F0C6
:1035500010922B0485E023D98091790488230CF004
:1035600076C080917804811172C0109278046FC087
:103570008091680481110CC081E080932B0420911C
:10358000690430916A0430936C0420936B045FC02B
:10359000817089130DC060E08091670401DA209189
:1035A000690430916A0430936C0420936B044FC01B
:1035B00084134DC061E080916704F2D920916904C1
:1035C00030916A0430936C0420936B0440C00E94D5
:1035D0009E0281113CC0809177048823C1F18091C3
:1035E0007A04882321F061E08BE0DAD903C060E03F
:1035F0008BE0D6D98091770481FF16C020917404A6
:10360000309175042115310539F02150310930937D
:103610007504209374041BC02BED31E030937504C6
:1036200020937404ACDC13C080FF11C08FEF8C0FAB
:10363000823068F40E942510811105C060E08091FD
:103640006704AED904C061E080916704A9D90E94E3
:103650009E02882309F455C080916D04853051F491
:1036600021E040E06EE170E082E0A9DA80E00E94B3
:10367000A50243C0811104C083E00E94AB0273C065
:10368000823021F484E00E94AB0274C0863021F4C1
:1036900088E00E94AB026EC0873021F489E00E946E
:1036A000AB0268C0883021F48AE00E94AB0262C09D
:1036B000813009F466C0843009F44EC0893009F4C1
:1036C00052C08F3019F40E94AB0254C0843151F4BF
:1036D00020E040E069E170E082E071DA84E10E947C
:1036E000AB020BC0853119F40E94AB023CC086319D
:1036F00021F483E00E94AB0244C08FEF80936D04FD
:1037000047C08091790482FD43C00E943B11883EEE
:10371000934008F43DC0C73009F06EDC8091650429
:10372000909166048C3D2FEF920728F401969093B8
:1037300066048093650480916504909166048137E6
:10374000924030F180910B01811122C010926604E9
:10375000109265048CD81CC020E041E06AE070E063
:1037600081E02DDACACF20E041E069E170E082E03B
:1037700026DAC3CF20E041E069E170E083E01FDAA0
:10378000BCCF20E041E06AE070E087E018DAB5CF16
:10379000CF9108958B3F18F4682F70E002C06AEF54
:1037A00070E06530710510F465E070E070930D0114
:1037B00060930C0188E190E00E947B0D80910C01E8
:1037C00090910D019C01220F331F220F331F820F96
:1037D000931F90930D0180930C010895E5E5F5E0AA
:1037E0008DE296E011921192E817F907D9F788E176
:1037F00090E00E948C0D90E09C0125503109263FFD
:10380000310528F490930D0180930C0106C08AE0E5
:1038100090E090930D0180930C0180910C019091A8
:103820000D019C01220F331F220F331F820F931FA4
:1038300090930D0180930C01089570E0FB01EE0F51
:10384000FF1FEB5AFA4F2081318112161306FCF448
:10385000280F391F80910C0190910D01281739070D
:1038600040F0FB01EE0FFF1FEB5AFA4F118210825E
:1038700034C0FB01EE0FFF1FEB5AFA4F213D87E0EA
:10388000380714F020ED37E03183208326C033233E
:1038900024F5281B390B80910C0190910D01919515
:1038A000819591098217930740F0FB01EE0FFF1FEE
:1038B000EB5AFA4F1182108210C0213388EF38077B
:1038C0001CF490ED87E002C0922F832FFB01EE0FD6
:1038D000FF1FEB5AFA4F90838183FB01EE0FFF1F0E
:1038E000EB5AFA4F81E020813181232B09F080E0EF
:1038F0000895662359F0E82FF0E0EE0FFF1FEB5A12
:10390000FA4F81E090E0918380830895E82FF0E002
:10391000EE0FFF1FEB5AFA4F8FEF9FEF91838083DB
:103920000895E0EFF7E5E491E1EFF7E5849191E0A8
:103930009093650790936607909367079CE0909338
:10394000680780936407823039F492E090936507AA
:103950009AE0909368071BC0873039F492E0909307
:1039600065079BE09093680712C0813021F492E0D4
:10397000909367070CC09CEF980F923040F492E050
:1039800090936507909367079BE0909368070C946A
:10399000040E0895809164070895CF93DF9300D0BB
:1039A00000D01F92CDB7DEB785E0E4E6F7E0DE0198
:1039B000119601900D928A95E1F729813A814B8108
:1039C0005C816D8170E080E090E00F900F900F902F
:1039D0000F900F90DF91CF910895EDE2F6E08FE325
:1039E00096E01192E817F907E1F7089580916407CE
:1039F0008150823010F4269A2E983E9A4698809AEA
:103A00008898819A89983F9A47988091640787306F
:103A100099F4269A2E98259A2D98249A2C98579A9C
:103A20005F98569A5E98549A5C98219A2998229A9F
:103A30002A98239A2B9814C08450823078F46E9A76
:103A40007698209A2898279A2F98549A5C98569A94
:103A50005E98579A5F98249A2C9802C0259A2D98C0
:103A600080916407813011F4549A5C9808955098BD
:103A700058985198599852985A9853985B985598D5
:103A80005D98809164079FEF980F923010F0873017
:103A900011F427982F986A98729A0895E8DFA6DFA4
:103AA0009CCF0895CF93C82FA1DFC13139F4809105
:103AB0006407813009F071C05C9A77C0C03141F46D
:103AC000809164078150823008F064C02D9A6DC0E7
:103AD000C83008F062C0809164079CEF980F923064
:103AE00030F0873009F04EC002C02E9A01C0469ACD
:103AF000C0FD889AC1FD899AC2FF57C0479A55C038
:103B000088EF8C0F893000F59730F1F48C2F90E01E
:103B1000FC013897E930F10508F047C0ED59FF4F37
:103B20000C94BD252E9A41C02D9A3FC02C9A3DC0C1
:103B30005F9A3BC05E9A39C05C9A37C0299A35C0FB
:103B40002A9A33C02B9A31C0873078F5945092303E
:103B500060F58C2F90E0FC013897E730F10528F5EF
:103B6000E459FF4F0C94BD25769A1FC0289A1DC0BA
:103B70002F9A1BC05C9A19C05E9A17C05F9A15C035
:103B80002C9A13C0909164078FEF890F823008F050
:103B9000B7CFADCF90916407B3CF909164078FEF0B
:103BA000890F823008F0ACCFA0CFCF910895CF938A
:103BB000DF93D82FC62F5BDF909164078CEF890FBE
:103BC000823090F4C53009F480C0DF3008F07FC047
:103BD000D11151C0C23009F04EC09CB192FB99275F
:103BE00090F981E089277AC09730A9F5D11109C0F1
:103BF000C11107C09CB192FB992790F981E08927F8
:103C00006DC0C53029F481E0489968C080E066C085
:103C1000C43029F481E0499961C080E05FC0C330BD
:103C200029F481E04A995AC080E058C0C23029F492
:103C300081E04B9953C080E051C0C13029F481E04C
:103C40004D994CC080E04AC0C11143C081E01F992A
:103C500045C080E043C0D13119F4923061F43BC0DB
:103C6000DB3049F4C53039F49CB192FB992790F9C7
:103C700081E0892733C0C11105C081E048992EC079
:103C800080E02CC0C13029F481E0499927C080E050
:103C900025C0C23029F481E04A9920C080E01EC0CE
:103CA000C33029F481E04B9919C080E017C0C430BB
:103CB00029F481E04D9912C080E010C0C53069F44C
:103CC00081E01F990BC080E009C080E007C080E060
:103CD00005C080E003C080E001C080E0DF91CF91AB
:103CE00008952F923F924F925F926F927F928F92A0
:103CF0009F92AF92BF92CF92DF92EF92FF920F937B
:103D00001F93CF93DF9300D01F92CDB7DEB70E94F1
:103D10004C0E5C010F2EFDE2EF2EF6E0FF2EF02D93
:103D20001982312CCC24C394D12C832DBBDE0F2ED1
:103D3000FCE62F2EF02D230C532C1A821B824701F8
:103D40006A81832D34DF482E86010A8002C0000F6D
:103D5000111F0A94E2F7F70120812023652C712CB2
:103D6000F301EE0FFF1FE358FB4F808191818A0D15
:103D70009B1D813DF7E09F0710F080ED97E0F30178
:103D8000EE0FFF1FE358FB4F91838083222319F02E
:103D9000442019F021C04420F9F0442D652D4DDD5B
:103DA000F301EE0FFF1FE358FB4F118210828823AF
:103DB00099F0642D852D9DDD442039F0F40180813A
:103DC000082B0083F1E0F98307C00095F40180819E
:103DD00008230083F1E0F9838A819B8101969B830C
:103DE0008A8392E1590E2510ABCF3394EFEFEE1A90
:103DF000FE0A39129ACF81E0F981F11101C080E009
:103E00000F900F900F90DF91CF911F910F91FF9026
:103E1000EF90DF90CF90BF90AF909F908F907F906A
:103E20006F905F904F903F902F9008958DE296E0B5
:103E30000895CF93C62F0E94701390914706C1300A
:103E400041F4982B80952091540682238093540648
:103E50000CC020915406282319F08095982305C0A2
:103E600020915306822B8093530690934706CF915F
:103E700008950F931F93CF93DF93613061F52091E5
:103E80004906281709F454C0EAE4F6E03FEF90E051
:103E900004C02191281709F44BC03F3F19F42111A8
:103EA00001C0392F9F5F9630A1F73FC0E32FFF2756
:103EB000E7FDF095E95BF94F828381E090E002C075
:103EC000880F991F3A95E2F78095909152068923C1
:103ED000809352062DC06091520670E00091510609
:103EE000E9E4F6E020E030E0C1E0D0E09081981312
:103EF00013C0AB01022E02C0559547950A94E2F714
:103F000040FF02C0108208C0AE01022E02C0440F62
:103F1000551F0A94E2F7042B2F5F3F4F319626304E
:103F2000310521F70093510603C03F3F09F0BECF92
:103F3000DF91CF911F910F9108958FEF80935406D9
:103F40001092530680935206109251061092470623
:103F50001092490610924A0610924B0610924C0697
:103F600010924D0610924E060895E7CF0895809363
:103F70000E01089581E090910E01911101C080E041
:103F80000895A0915206282F30E04A2F50E0082EC5
:103F900002C0559547950A94E2F740FF22C09091E0
:103FA0005106492F50E0082E02C0559547950A94B6
:103FB000E2F740FF16C061E070E0AB01082E02C0DE
:103FC000440F551F0A94E2F74095942390935106AD
:103FD000F901E95BF94F128290914F069F5F909330
:103FE0004F06F901E95BF94F9281992361F041E0B5
:103FF00050E09A0102C0220F331F8A95E2F72A2B64
:1040000020935206089521E030E0A90102C0440F38
:10401000551F8A95E2F7CA018095A823A0935206FE
:104020000895CF93B09147064091540650E0A09177
:104030005306C0914F066B2F80E090E0E1E0F0E086
:104040009A01082E02C0359527950A94E2F720FFC1
:1040500016C02A2F30E0082E02C0359527950A9405
:10406000E2F720FF0CC09F01082E02C0220F331F71
:104070000A94E2F72095B223CF5F6B2FA22301961B
:1040800088309105E9F6A093530660934706C093E4
:104090004F0670E0E091540680E090E041E050E08F
:1040A0009B01082E02C0359527950A94E2F720FF60
:1040B00009C09A01082E02C0220F331F0A94E2F7AA
:1040C000E22B09C09A01082E02C0220F331F0A9466
:1040D000E2F72095E22301968830910509F7E093F5
:1040E0005406CF910895CF9380915006811104C05A
:1040F00080914F06882319F188E0E7E4F6E0AFE30A
:10410000B6E001900D928A95E1F710925006109258
:104110004F0640E050E068E070E087E496E053D05E
:10412000E8EEF0E080818E7780837BDFC0E08C2F2B
:1041300028DFCF5FC630D9F781E080930E01CF91A1
:104140000895CF93DF93C82FD62F0E947E139FEF41
:104150009C0F9E3FA8F58230C9F4DD2349F08C2FD7
:104160000E94AE0F813061F461E08C2F62DE08C0E6
:104170008C2F0E94AE0F811103C060E08C2F59DE9E
:10418000809150068F5F809350061AC08130C1F431
:10419000DD2349F08C2F0E94AE0F813061F461E085
:1041A0008C2F67DE08C08C2F0E94AE0F811103C0D8
:1041B00060E08C2F5EDE809150068F5F809350060A
:1041C000DF91CF9108958F929F92AF92BF92CF923D
:1041D000DF92EF92FF920F931F93CF93DF937C01B7
:1041E000EB015A01D5D181113EC0A114B10439F0BF
:1041F000F50180819181C81BD90BE80EF91E20972B
:1042000079F100E010E00F2EF8EE8F2E912CF02DBA
:104210000F2EF1EFCF2ED12CF02DF401808185FDF2
:1042200014C080818E7780837AD4A114B10449F0C0
:10423000F50180819181080F191F1183008385E0AA
:1042400012C0A6D1882349F00EC0F70181917F01E9
:10425000F601808321970F5F1F4F2097F1F602C070
:1042600080E001C080E0DF91CF911F910F91FF901E
:10427000EF90DF90CF90BF90AF909F908F90089578
:10428000DF92EF92FF920F931F93CF93DF932091D2
:104290007407309175072617370758F061157105B7
:1042A00039F4E8EEF0E020812E7720839B0101C0F5
:1042B0009B01A0E0E8EEF0E003EF10E062EF70E0B9
:1042C000C1EFD0E0FF24F394E12C38C040916D079A
:1042D000442309F444C0453009F443C0408143FD00
:1042E00042C0408142FF03C0E8EEF0E033C04081AD
:1042F00040FF24C0D801DC90DB014C9150E05D29E7
:104300002115310599F04830510580F4A82FB92FB7
:104310008D9188838A2F9B2F215031094F5F5F4FEA
:104320002115310519F04830510591F7AF2D48306E
:10433000510509F0AE2D40814E774083211531059E
:1043400029F6A111C3CFD0CF80916D07882369F0E2
:10435000853069F0808182FFF7CF80E009C082E07C
:1043600007C083E005C081E003C082E001C083E0B4
:10437000DF91CF911F910F91FF90EF90DF90089503
:10438000CF92DF92FF920F931F93CF93DF932091F1
:104390007407309175072617370758F061157105B6
:1043A00039F4E8EEF0E020812E7720839B0101C0F4
:1043B0009B01E82FF92F10E0A8EEB0E063EF70E06A
:1043C00042EF50E00F2EF1EFCF2ED12CF02D01E077
:1043D000F12C34C080916D07882309F440C08530EA
:1043E00009F43FC08C9183FD3EC08C9182FF03C0D5
:1043F000E8EEF0E02FC08C9180FF20C0EB01188127
:10440000EA01888190E0912B2115310581F08830F7
:10441000910568F41491E601188331962150310911
:1044200001962115310519F08830910599F7102F63
:10443000089709F01F2D8C918E778C9321153105EB
:1044400049F61111C7CFD4CF80916D07882369F049
:10445000853069F0808182FFF7CF80E009C082E07B
:1044600007C083E005C081E003C082E001C083E0B3
:10447000DF91CF911F910F91FF90DF90CF90089522
:104480008F929F92BF92CF92DF92EF92FF920F9303
:104490001F93CF93DF93873070F126C0592F5F7041
:1044A000E8015883891731F0E901D8805081E4018F
:1044B000788103C05B2DD62E7C2D51FF12C04C910C
:1044C0004E7F4C9340814D7F40834C9141604C9393
:1044D000E901D8825083E4017883E70158815523AC
:1044E00044F49F5F9730D1F68F708093E90081E0AC
:1044F0001FC080E01DC0982F9F709093E900982FF7
:10450000542FD62E70E0ABEEB0E0EDEEF0E02CEEE6
:1045100030E00F2EF0EF8F2E912CF02D0F2EFEEEAF
:10452000EF2EF12CF02D09EE10E0B42EC12CC5CFEA
:10453000DF91CF911F910F91FF90EF90DF90CF907F
:10454000BF909F908F90089580916E0788231CF0F4
:10455000E8EEF0E014C0E8EEF0E004C080916D07F2
:104560008823A9F0808182FFF9CFE8EEF0E0808116
:104570008B778083089580916D07882341F0808137
:1045800080FFF9CFE8EEF0E080818E778083089598
:104590000F931F93CF93DF932091E4003091E500B8
:1045A00065E6ACEEB0E0E8EEF0E00BEE10E044EED5
:1045B00050E08C9180FD21C024C080916D0788233C
:1045C00081F0853081F0E801888185FD0EC0EA0127
:1045D000888199812817390761F3615041F09C0166
:1045E000E8CF82E012C083E010C081E00EC084E01A
:1045F0000CC080E00AC080E008C0808180FFDDCF71
:10460000F8CF808182FFD9CFF6CFDF91CF911F9174
:104610000F9108950F931F93CF93DF934CD053D0F6
:10462000C8EDD0E088818F7788838881806888830F
:1046300088818F7D888319BC10926D07109269075D
:1046400010926B0710926A0700EE10E0F80180816B
:104650008B7F808388818160888342E060E080E096
:104660000FDFE1EEF0E080818E7F8083E2EEF0E00C
:10467000808181608083808188608083F80180816F
:104680008E7F8083888180618883DF91CF911F91A5
:104690000F910895E8EDF0E080818F7E8083E7ED53
:1046A000F0E080818160808384E082BF81E080933C
:1046B0006C07B0CF0895E8EDF0E080818E7F8083B5
:1046C0001092E20008951092DA001092E10008952D
:1046D0001F920F920FB60F9211242F933F934F9377
:1046E0005F936F937F938F939F93AF93BF93EF935A
:1046F000FF938091E10082FF0BC08091E20082FF76
:1047000007C0E1EEF0E080818B7F80830E940F1272
:104710008091DA0080FF1EC08091D80080FF1AC00F
:10472000EAEDF0E080818E7F80838091D90080FF68
:104730000CC019BC82E089BD09B400FEFDCF81E048
:1047400080936D070E94661105C019BC10926D0719
:104750000E946A118091E10080FF16C08091E20002
:1047600080FF12C0E2EEF0E080818E7F8083808146
:1047700080618083E8EDF0E080818062808319BCF5
:1047800085E080936D07CAD18091E10084FF2EC03F
:104790008091E20084FF2AC019BC82E089BD09B47F
:1047A00000FEFDCFE8EDF0E080818F7D8083E1EEBB
:1047B000F0E080818F7E8083E2EEF0E080818F7E6A
:1047C000808380818160808380916907882321F0C4
:1047D00084E080936D0709C08091E300882314F47E
:1047E00083E001C081E080936D0798D18091E10062
:1047F00083FF1EC08091E20083FF1AC0E1EEF0E06B
:104800008081877F808382E080936D0710926907A3
:1048100080818E7F8083E2EEF0E080818E7F8083D6
:1048200080818061808342E060E080E029DE76D193
:10483000FF91EF91BF91AF919F918F917F916F9178
:104840005F914F913F912F910F900FBE0F901F904E
:1048500018950F931F93CF93DF93CDB7DEB7AA9729
:104860000FB6F894DEBF0FBECDBFEEE6F7E086E7E9
:1048700097E0A1EFB0E02C912193E817F907D9F761
:104880000E947B118091E80083FF23C130916E0765
:1048900020916F07822F90E08A30910508F019C1AE
:1048A000FC01ED58FF4F69C1303821F0323809F072
:1048B00010C108C080916A0790916B07992371F02D
:1048C00082600CC0809172078F70E9EEF0E0808307
:1048D0008091EB0085FB882780F91082E8EEF0E0FC
:1048E0009081977F9083A1EFB0E08C931C928081A0
:1048F0008E77808329DEEDC0332309F4F9C032308E
:1049000009F0E7C0FAC081E0233009F080E080932D
:104910006B0728C0209172072F7009F4DAC020932A
:10492000E9008091EB0080FF1DC080916F0783300C
:1049300031F4EBEEF0E080818062808313C0EBEE17
:10494000F0E080818061808381E090E002C0880F88
:10495000991F2A95E2F7AAEEB0E08C931C92808111
:10496000886080831092E900E8EEF0E08081877F24
:104970008083EADDAEC03111ACC0109170071F77A3
:10498000E3EEF0E080818078812B8083E8EEF0E038
:104990008081877F8083D8DDE8EEF0E0808180FF32
:1049A000FDCFE3EEF0E0808180688083112311F079
:1049B00083E001C082E080936D078BC030583230B5
:1049C00008F087C080917007909171078C3D23E0BB
:1049D000920799F583E08A838AE289835FB7F89426
:1049E000DE01139620E03EE041E2E32FF0E0409349
:1049F0005700849120FF03C082958F703F5F8F70B6
:104A00008A3018F090E0C79602C090E0C0968D936F
:104A10009D932F5F243149F75FBF08EE10E0F80146
:104A20008081877F80836AE270E0CE01019628DC76
:104A3000F80180818B7780834CC0AE014F5F5F4F60
:104A4000609172070E944502009709F442C008EE87
:104A500010E0F8012081277F2083BC0189819A81A1
:104A60008FDCF80180818B77808333C0303889F503
:104A7000E8EEF0E08081877F8083809169078093F2
:104A8000F10080818E7780835FDD23C0311121C0EA
:104A9000809170078230E8F4E8EEF0E08081877F53
:104AA000808380917007809369074EDD809169074C
:104AB000882321F084E080936D0709C08091E30092
:104AC000882314F484E001C081E080936D070E9484
:104AD0006B118091E80083FF16C0E8EEF0E0808162
:104AE000877F8083EBEEF0E08081806280830BC063
:104AF00080917007813069F706CF80917007882315
:104B000009F408CF2FCFAA960FB6F894DEBF0FBED8
:104B1000CDBFDF91CF911F910F9108950895CF934D
:104B200080916D078823A1F0C091E900CF7080913A
:104B3000EC0080FF02C080E801C080E0C82B10922A
:104B4000E9008091E80083FD84DECF70C093E90026
:104B5000CF91089597FB072E16F4009406D077FDA9
:104B600008D020D007FC05D03EF4909581959F4F4A
:104B70000895709561957F4F0895EE0FFF1F059082
:104B8000F491E02D0994A29FB001B39FC001A39FAF
:104B9000700D811D1124911DB29F700D811D112476
:104BA000911D0895AA1BBB1B51E107C0AA1FBB1F83
:104BB000A617B70710F0A61BB70B881F991F5A95A9
:104BC000A9F780959095BC01CD010895F999FECF84
:104BD00092BD81BDF89A992780B50895262FF9993D
:104BE000FECF1FBA92BD81BD20BD0FB6F894FA9AD0
:104BF000F99A0FBE01960895F894FFCFFFF40101D2
:104C0000006CFF00000000010A000100FFFFFFFF31
:104C1000FFFFFFFFFFFFFFFFFFFFFFFFFFFFFFFFA4
:104C2000FFFFFFFFFFFFFFFFFFFFFFFFFFFFFFFF94
:104C3000FFFFFFFFFFFFFFFFFFFFFFFFFFFFFFFF84
:104C4000FFFFFFFFFFFFFFFFFFFFFFFFFFFFFFFF74
:1057F00002041E372337212223FFFFFFFFFFFF0193
:105800005878587A587B587D587E587E587E587EF6
:10581000587E587E587E587E587E587E587E587ED8
:10582000587E587E587E587E587E587E587E587EC8
:10583000587E587E587E587E587E587E587E587EB8
:10584000587E587E587E587E587E587E587E5C150D
:105850000000000000000000000000000000000048
:105860000000000000000000000000000000000038
:105870000000000000000000980E98989798973755
:105880003737972C970697389710269706121117D7
:1058900015120F2C101207089727972C06121010BC
:1058A0000411072C0E081C2C0F0C16172C973636DB
:1058B0003697280E081C2C13150816162C17122CB8
:1058C0009707973897109704061512372C970710EB
:1058D00097271E97350710971E22280E081C2C1399
:1058E000150816162C17122C0B12170E081C362C26
:1058F000060B04110A082C170B082C0F12060E2C8D
:10590000161704171816280F041C08152C970F08D3
:1059100007972C9716971704171816282B970F0F11
:1059200011972C9733972C11121510040F282B97D1
:105930000F0F17972C9733972C17120A0A0F082866
:105940002B970F0F05972C9733972C050F0C110EE3
:105950002897080406972C9733972C0808131512DC
:10596000102C040F0F2C060F080415362C160817E0
:10597000170C110A162C0411072C10040615122CF2
:105980000C110C170C040F0C1D0816289705171581
:10599000972C9733972C05121217970F971204071D
:1059A00008152C081117151C362C181608072C0979
:1059B00012152C090C15101A0415082C18130F12A7
:1059C00004072897190815972C9733972C090C155D
:1059D000101A0415082C190815160C121128970511
:1059E000040E972C9733972C0504060E18132C0ED3
:1059F000081C100413381004061512362C06041166
:105A00002C05082C0413130F0C08072C0C112C1751
:105A10000B082C271F9707972C970E97081C971099
:105A20009704131308152897151617972C97339773
:105A30002C150816170415172C0E081C0512041532
:105A40000728970705972C2C9733972C07080512E2
:105A500018110608362C160817170C110A2C1504F5
:105A6000110A082C229735971F2227972697101680
:105A7000972797362C07080904180F179733972193
:105A80002710162897170F972C2C9733972C17123F
:105A90000A0A0F082C0F041C0815362C1608172CA0
:105AA0000C112C170B082C181608152C0F041C08A9
:105AB000152C1F9735972128970E0F972C2C97336D
:105AC000972C0E081C2C0F12060E362C0A122C0CCA
:105AD0001117122C0E081C2C0F12060E2C1608176C
:105AE000170C110A2C1617081328970610972C2C40
:105AF0009733972C060F0804152C10040615123640
:105B00002C0C110C170C040F0C1D082C040F0F2C5F
:105B1000170B082C071C1104100C062C100406157A
:105B2000122C9726071097271E97350710971E22CD
:105B300097279728971007972C2C9733972C1004AA
:105B40000615122C07080F041C362C160817170C04
:105B5000110A2C1504110A082C279735971F2227A4
:105B60009726971B1E271016972797362C279733B3
:105B700097100C110C1018102C07080F041C2897F4
:105B8000060B972C2C9733972C060F0804152C0B1B
:105B900012170E081C362C0C110C170C040F0C1DC0
:105BA00008162C042C0B12170E081C2C06121109B7
:105BB0000C0A181504170C12112C0C1109121510CF
:105BC00004170C121128970B0E972C2C9733972C37
:105BD0000B12170E081C362C0A122C0C1117122C43
:105BE0000B12170E081C2C16081718132C16170862
:105BF00013162834160B0C0917342C972E972C34B7
:105C0000973597342C9733972C0816062C17122C9F
:105C1000170C0F070828FFFFFFFFFFFFFFFFFFFF25
:105C2000FFFFFFFFFFFFFFFFFFFFFFFFFFFFFFFF84
:105C3000FFFFFFFFFFFFFFFFFFFFFFFFFFFFFFFF74
:105C4000FFFFFFFFFFFFFFFFFFFFFFFFFFFFFFFF64
:105C5000FFFFFFFFFFFFFFFFFFFFFFFFFFFFFFFF54
:106C0000292B969700961E14041D99991F1A161B7E
:106C100098982008070606FF2115091919FF221761
:106C20000A052C2C231C0B1111FF24180D1010FF2A
:106C3000250C0E36369C26120F3700FF27133338EB
:106C40009C9D2D2F3434FF2A2E30309BE1E32A31D6
:106C500028E3009A00494C000050474A4D00525129
:106C6000484B4E00004F000000000000292B969773
:106C700000963A14041D99993B1A161B98983C08E3
:106C8000070606FF3D15091919FF3E170A052C2CAA
:106C90003F1C0B1111FF40180D1010FF410C0E3658
:106CA000369C42120F3700FF431333389C9D442F0C
:106CB0003434FF2A4530309B9DE32A3128E3009A83
:106CC00000494C000050474A4D005251484B4E007D
:106CD000004F000000000000292B96970096A0149A
:106CE000041D9999A11A161B9898A208070606FF79
:106CF000A315091919FFA4170A052C2CA51C0B11A3
:106D000011FFA6180D1010FFA70C0E36369CA81206
:106D10000F3700FFA91333389C9DAA2F3434FF2A64
:106D2000AB30309B9DE32A3128E3009A00494C00A8
:106D30000050474A4D005251484B4E00004F000052
:106D400000000000292B969700961E14041D9999A7
:106D50001F1A161B98982008070606FF2115091907
:106D600019FF22170A052C2C2355541111FF242139
:106D70001E6210FF25221F63369C2623203700FF4A
:106D8000275758389C9D2D2F3434FF2A2E30309BA6
:106D90009DE32A3128E3009A00494C000050474AFD
:106DA0004D005251484B4E00004F000000000000C3
:106DB000352B009700963A14FFB499993BFFFFB525
:106DC00098983C08FF0606FF3D15091919FF3E1764
:106DD0000A05E62C3F1C0B1111FF40494A1010FF19
:106DE000414B4E36369C424C4D3700FF43133338EF
:106DF0009C9D442F3434FF2A4530309B9DE34C3119
:106E000028E3009A00494C000050474A4D00525177
:106E1000484B4E00004F000000000000292B009757
:106E20000096A0B690B49999A1B791B59898A2B8D8
:106E3000920006FFA3B9930019FFA4BA94002C2C6A
:106E4000A5BB950011FFA6BC0D0010FFA7BD0E004D
:106E5000369CA8BE0F0000FFA9BF33009C9DAAC0AE
:106E60003434FF2AABC1309B9DE32A3128E3009ADA
:106E700000494C000050474A4D005251484B4E00CB
:106E8000004F00000000000029EA00979696DCD22F
:106E9000041D9999DDD3161B9898DED407F006FFE0
:106EA000DFD6091919FF22E50AEDE72C231CF211A0
:106EB00011FF24180D1010FF250CF3E9369C261243
:106EC000C8E89CFF27F133389D9DEC2F3434FF2A0E
:106ED000EB30309B65E32A3128E39A9A00494C0055
:106EE0000050474A4D005251484B4E00004F0000A1
:106EF00000000000E52B0000000000000000000082
:106F00000000000000000000000000000000000081
:106F100000000000000000005455000000005F5C0D
:106F200059620000605D5A630000615E5B00000012
:106F3000565758000000000000000000000000004C
:106F400000002A0000000000000000000000000017
:106F50000000000000000000000000000000000031
:106F6000FFFFFFFFFFFFFFFFFFFFFFFFFFFFFFFF31
:106F7000FFFFFFFFFFFFFFFFFFFFFFFFFFFFFFFF21
:106F8000FFFFFFFFFFFFFFFFFFFFFFFFFFFFFFFF11
:106F9000FFFFFFFFFFFFFFFFFFFFFFFFFFFFFFFF01
:106FA000FFFFFFFFFFFFFFFFFFFFFFFFFFFFFFFFF1
:106FB000FFFFFFFFFFFFFFFFFFFFFFFFFFFFFFFFE1
:106FC000FFFFFFFFFFFFFFFFFFFFFFFFFFFFFFFFD1
:106FD000FFFFFFFFFFFFFFFFFFFFFFFFFFFFFFFFC1
:106FE000FFFFFFFFFFFFFFFFFFFFFFFFFFFFFFFFB1
:106FF000FFFFFFFFFFFFFFFFFFFFFFFFFFFFFFFFA1
:00000001FF
